{
  "contractName": "Faucet",
  "abi": [
    {
      "inputs": [],
      "name": "numOfFunders",
      "outputs": [
        {
          "internalType": "uint256",
          "name": "",
          "type": "uint256"
        }
      ],
      "stateMutability": "view",
      "type": "function",
      "constant": true
    },
    {
      "inputs": [],
      "name": "owner",
      "outputs": [
        {
          "internalType": "address",
          "name": "",
          "type": "address"
        }
      ],
      "stateMutability": "view",
      "type": "function",
      "constant": true
    },
    {
      "stateMutability": "payable",
      "type": "receive",
      "payable": true
    },
    {
      "inputs": [],
      "name": "addFunds",
      "outputs": [],
      "stateMutability": "payable",
      "type": "function",
      "payable": true
    },
    {
      "inputs": [],
      "name": "getAllFunders",
      "outputs": [
        {
          "internalType": "address[]",
          "name": "",
          "type": "address[]"
        }
      ],
      "stateMutability": "view",
      "type": "function",
      "constant": true
    },
    {
      "inputs": [],
      "name": "test2",
      "outputs": [],
      "stateMutability": "nonpayable",
      "type": "function"
    },
    {
      "inputs": [],
      "name": "test1",
      "outputs": [],
      "stateMutability": "nonpayable",
      "type": "function"
    },
    {
      "inputs": [
        {
          "internalType": "uint256",
          "name": "index",
          "type": "uint256"
        }
      ],
      "name": "getFunderAtIndex",
      "outputs": [
        {
          "internalType": "address",
          "name": "",
          "type": "address"
        }
      ],
      "stateMutability": "view",
      "type": "function",
      "constant": true
    },
    {
      "inputs": [
        {
          "internalType": "uint256",
          "name": "withdrawAmount",
          "type": "uint256"
        }
      ],
      "name": "withdraw",
      "outputs": [],
      "stateMutability": "nonpayable",
      "type": "function"
    }
  ],
  "bytecode": "0x608060405234801561001057600080fd5b50336000806101000a81548173ffffffffffffffffffffffffffffffffffffffff021916908373ffffffffffffffffffffffffffffffffffffffff1602179055506109d3806100606000396000f3fe60806040526004361061007f5760003560e01c80638da5cb5b1161004e5780638da5cb5b1461010d578063a26759cb14610138578063af7f2c9b14610142578063c218deca1461016d57610086565b80632e1a7d4d1461008b57806366e41cb7146100b45780636b59084d146100cb5780636fbbb55d146100e257610086565b3661008657005b600080fd5b34801561009757600080fd5b506100b260048036038101906100ad9190610640565b6101aa565b005b3480156100c057600080fd5b506100c9610241565b005b3480156100d757600080fd5b506100e06102d1565b005b3480156100ee57600080fd5b506100f7610361565b604051610104919061076d565b60405180910390f35b34801561011957600080fd5b506101226104a4565b60405161012f9190610752565b60405180910390f35b6101406104c8565b005b34801561014e57600080fd5b506101576105e8565b60405161016491906107cf565b60405180910390f35b34801561017957600080fd5b50610194600480360381019061018f9190610640565b6105ee565b6040516101a19190610752565b60405180910390f35b8067016345785d8a00008111156101f6576040517f08c379a00000000000000000000000000000000000000000000000000000000081526004016101ed906107af565b60405180910390fd5b3373ffffffffffffffffffffffffffffffffffffffff166108fc839081150290604051600060405180830381858888f1935050505015801561023c573d6000803e3d6000fd5b505050565b60008054906101000a900473ffffffffffffffffffffffffffffffffffffffff1673ffffffffffffffffffffffffffffffffffffffff163373ffffffffffffffffffffffffffffffffffffffff16146102cf576040517f08c379a00000000000000000000000000000000000000000000000000000000081526004016102c69061078f565b60405180910390fd5b565b60008054906101000a900473ffffffffffffffffffffffffffffffffffffffff1673ffffffffffffffffffffffffffffffffffffffff163373ffffffffffffffffffffffffffffffffffffffff161461035f576040517f08c379a00000000000000000000000000000000000000000000000000000000081526004016103569061078f565b60405180910390fd5b565b6060600060015467ffffffffffffffff8111156103a7577f4e487b7100000000000000000000000000000000000000000000000000000000600052604160045260246000fd5b6040519080825280602002602001820160405280156103d55781602001602082028036833780820191505090505b50905060005b60015481101561049f576003600082815260200190815260200160002060009054906101000a900473ffffffffffffffffffffffffffffffffffffffff16828281518110610452577f4e487b7100000000000000000000000000000000000000000000000000000000600052603260045260246000fd5b602002602001019073ffffffffffffffffffffffffffffffffffffffff16908173ffffffffffffffffffffffffffffffffffffffff1681525050808061049790610870565b9150506103db565b505090565b60008054906101000a900473ffffffffffffffffffffffffffffffffffffffff1681565b6000339050600260008273ffffffffffffffffffffffffffffffffffffffff1673ffffffffffffffffffffffffffffffffffffffff16815260200190815260200160002060009054906101000a900460ff166105e55760006001600081548092919061053390610870565b9190505590506001600260008473ffffffffffffffffffffffffffffffffffffffff1673ffffffffffffffffffffffffffffffffffffffff16815260200190815260200160002060006101000a81548160ff021916908315150217905550816003600083815260200190815260200160002060006101000a81548173ffffffffffffffffffffffffffffffffffffffff021916908373ffffffffffffffffffffffffffffffffffffffff160217905550505b50565b60015481565b60006003600083815260200190815260200160002060009054906101000a900473ffffffffffffffffffffffffffffffffffffffff169050919050565b60008135905061063a81610986565b92915050565b60006020828403121561065257600080fd5b60006106608482850161062b565b91505092915050565b60006106758383610681565b60208301905092915050565b61068a81610834565b82525050565b61069981610834565b82525050565b60006106aa826107fa565b6106b48185610812565b93506106bf836107ea565b8060005b838110156106f05781516106d78882610669565b97506106e283610805565b9250506001810190506106c3565b5085935050505092915050565b600061070a602183610823565b9150610715826108e8565b604082019050919050565b600061072d602383610823565b915061073882610937565b604082019050919050565b61074c81610866565b82525050565b60006020820190506107676000830184610690565b92915050565b60006020820190508181036000830152610787818461069f565b905092915050565b600060208201905081810360008301526107a8816106fd565b9050919050565b600060208201905081810360008301526107c881610720565b9050919050565b60006020820190506107e46000830184610743565b92915050565b6000819050602082019050919050565b600081519050919050565b6000602082019050919050565b600082825260208201905092915050565b600082825260208201905092915050565b600061083f82610846565b9050919050565b600073ffffffffffffffffffffffffffffffffffffffff82169050919050565b6000819050919050565b600061087b82610866565b91507fffffffffffffffffffffffffffffffffffffffffffffffffffffffffffffffff8214156108ae576108ad6108b9565b5b600182019050919050565b7f4e487b7100000000000000000000000000000000000000000000000000000000600052601160045260246000fd5b7f4f6e6c79206f776e65722063616e2063616c6c20746869732066756e6374696f60008201527f6e00000000000000000000000000000000000000000000000000000000000000602082015250565b7f43616e6e6f74207769746864726177206d6f7265207468616e20302e3120657460008201527f6865720000000000000000000000000000000000000000000000000000000000602082015250565b61098f81610866565b811461099a57600080fd5b5056fea26469706673582212209c2b53c316314c5205c32a0a3688c2da63af74f0d08321184c252f82e36a3da164736f6c63430008040033",
  "immutableReferences": {},
  "source": "// SPDX-License-Identifier: MIT\npragma solidity >=0.4.22 <0.9.0;\n\nimport \"./Owned.sol\";\n\ncontract Faucet is Owned {\n    uint256 public numOfFunders;\n\n    mapping(address => bool) private funders;\n    mapping(uint256 => address) private lutFunders;\n\n    modifier limitWithdraw(uint256 withdrawAmount) {\n        require(\n            withdrawAmount <= 100000000000000000,\n            \"Cannot withdraw more than 0.1 ether\"\n        );\n        _;\n    }\n\n    receive() external payable {}\n\n    function addFunds() external payable {\n        address funder = msg.sender;\n\n        if (!funders[funder]) {\n            uint256 index = numOfFunders++;\n            funders[funder] = true;\n            lutFunders[index] = funder;\n        }\n    }\n\n    function getAllFunders() external view returns (address[] memory) {\n        address[] memory _funders = new address[](numOfFunders);\n\n        for (uint256 i = 0; i < numOfFunders; i++) {\n            _funders[i] = lutFunders[i];\n        }\n    }\n\n    function test2() external onlyOwner {\n        // some managing stuff that only admin should have access to\n    }\n\n    function test1() external onlyOwner {\n        // some managing stuff that only admin should have access to\n    }\n\n    function getFunderAtIndex(uint256 index) external view returns (address) {\n        return lutFunders[index];\n    }\n\n    function withdraw(uint256 withdrawAmount)\n        external\n        limitWithdraw(withdrawAmount)\n    {\n        payable(msg.sender).transfer(withdrawAmount);\n    }\n\n    // this is a special function\n    // it's called when you make a tx that doesn't specifiy\n    // function name to called\n\n    // External functions are part of the contract interface\n    // which means they can be called via contracts and other\n    // transactions (tx)\n\n    // function justTesting() external pure returns (uint256) {\n    //     return 2 + 2;\n    // }\n\n    // pure, view - read-only cal, meaning no gas fee\n    // view - indicates that the function will not alter thet storage state in any way\n    // pure - even more strict, indicating that it will not even read the storage state\n\n    // Transactions (can generate state changes) and require gas fee\n    // read-only call, no gas fee\n\n    // to talk to the node on the network you can make JSON-RPC https calls\n}\n\n// Block information\n// nonce - a hash that when combined with the minHash proofs the block has gone through PoW\n// 8 bytes => 54 bits\n\n// const instance = await Faucet.deployed()\n// instance.addFunds({from: accounts[0], value: \"2000000000000000000\"})\n// instance.addFunds({from: accounts[1], value: \"2000000000000000000\"})\n\n// instance.withdraw(\"5000000000000000000\", {from: accounts[1]})\n\n// instance.getFunderIndex(0)\n// instance.getAllFunders(0)\n",
  "sourcePath": "/Users/oleratomasiu/Desktop/blockchain/faucet/contracts/FaucetContract.sol",
  "compiler": {
    "name": "solc",
    "version": "0.8.4+commit.c7e474f2.Emscripten.clang"
  },
  "schemaVersion": "3.4.4",
  "updatedAt": "2022-03-27T20:43:30.649Z",
  "networkType": "ethereum",
  "devdoc": {
    "kind": "dev",
    "methods": {},
    "version": 1
  },
  "userdoc": {
    "kind": "user",
    "methods": {},
    "version": 1
  }
}