{
  "contractName": "Storage",
  "abi": [
    {
      "inputs": [],
      "stateMutability": "nonpayable",
      "type": "constructor"
    },
    {
      "inputs": [
        {
          "internalType": "uint256",
          "name": "",
          "type": "uint256"
        }
      ],
      "name": "aa",
      "outputs": [
        {
          "internalType": "uint256",
          "name": "",
          "type": "uint256"
        }
      ],
      "stateMutability": "view",
      "type": "function"
    },
    {
      "inputs": [
        {
          "internalType": "address",
          "name": "",
          "type": "address"
        }
      ],
      "name": "bb",
      "outputs": [
        {
          "internalType": "uint256",
          "name": "",
          "type": "uint256"
        }
      ],
      "stateMutability": "view",
      "type": "function"
    }
  ],
  "bytecode": "0x608060405234801561001057600080fd5b5060046000806002815260200190815260200160002081905550600a60008060038152602001908152602001600020819055506107d060016000737ab69debb8f006252bfc4f76dfbc84db28aef12673ffffffffffffffffffffffffffffffffffffffff1673ffffffffffffffffffffffffffffffffffffffff16815260200190815260200160002081905550610211806100ac6000396000f3fe608060405234801561001057600080fd5b50600436106100365760003560e01c80637323febe1461003b578063e1d9bbbd1461006b575b600080fd5b6100556004803603810190610050919061011e565b61009b565b6040516100629190610156565b60405180910390f35b610085600480360381019061008091906100f5565b6100b3565b6040516100929190610156565b60405180910390f35b60006020528060005260406000206000915090505481565b60016020528060005260406000206000915090505481565b6000813590506100da816101ad565b92915050565b6000813590506100ef816101c4565b92915050565b60006020828403121561010757600080fd5b6000610115848285016100cb565b91505092915050565b60006020828403121561013057600080fd5b600061013e848285016100e0565b91505092915050565b610150816101a3565b82525050565b600060208201905061016b6000830184610147565b92915050565b600061017c82610183565b9050919050565b600073ffffffffffffffffffffffffffffffffffffffff82169050919050565b6000819050919050565b6101b681610171565b81146101c157600080fd5b50565b6101cd816101a3565b81146101d857600080fd5b5056fea26469706673582212203305cc1e46329183e1b65317416ec7ebd104a391f59e719bee2a8ff9c9eae82964736f6c63430008040033",
  "immutableReferences": {},
  "source": "// SPDX-License-Identifier: MIT\npragma solidity >=0.4.22 <0.9.0;\n\ncontract Storage {\n    mapping(uint256 => uint256) public aa;\n    mapping(address => uint256) public bb;\n\n    constructor() {\n        aa[2] = 4;\n        aa[3] = 10;\n\n        bb[0x7aB69deBB8f006252bfc4F76DfbC84DB28aeF126] = 2000;\n    }\n}\n",
  "sourcePath": "/Users/oleratomasiu/Desktop/blockchain/faucet/contracts/Storage.sol",
  "compiler": {
    "name": "solc",
    "version": "0.8.4+commit.c7e474f2.Emscripten.clang"
  },
  "schemaVersion": "3.4.4",
  "updatedAt": "2022-03-27T18:41:04.285Z",
  "devdoc": {
    "kind": "dev",
    "methods": {},
    "version": 1
  },
  "userdoc": {
    "kind": "user",
    "methods": {},
    "version": 1
  }
}